:020000040000FA
:10000000D06200201DD40000091400000D1400006F
:1000100000000000000000000000000000000000E0
:1000200000000000000000000000000011140000AB
:1000300000000000000000001514000029D400009A
:100040002BD400002DD40000191400001B14000054
:100050001D1400001F1400002114000023140000D0
:100060002514000027140000291400002B140000A0
:100070002D14000045D400001B2400003B28000084
:100080004BD4000035140000371400003914000070
:100090003B1400003D1400003F1400004114000018
:1000A00043140000000000000000000045140000A0
:1000B00047140000491400004B1400004D140000C8
:1000C00000F002F800F04BF80CA030C808382418F3
:1000D0002D18A246671EAB4654465D46AC4201D180
:1000E00000F03DF87E460F3E0FCCB6460126334267
:1000F00000D0FB1AA246AB4633431847F08A0100F2
:10010000108B01000023002400250026103A01D3A3
:1001100078C1FBD8520700D330C100D50B607047BF
:1001200010B5642902D10EF045F810BD782902D12E
:100130000EF076F810BD732902D10EF01AFC10BD36
:10014000002010BD1FB50EF089FB04000020002127
:100150000EF042FD401C60601FBD10B510BD0EF0DA
:10016000C4FC1146FFF7EEFF02F00AF80EF0EBFCBC
:1001700003B4FFF7F2FF03BC02F0C1F970B5054606
:100180000C46164602E00FCC0FC5103E102EFAD2D8
:10019000082E02D303CC03C5083E042E07D301CC9E
:1001A00001C5361F03E021782970641C6D1C761E82
:1001B000F9D270BD002905D0FB4AD2690243FA4B3F
:1001C000DA6104E0F84AD2698243F74BDA6170479A
:1001D0000146F54AD06803231B0202469A431046A3
:1001E00002460A431046F04AD060704710B50146F7
:1001F000E0230B40202B02D1EB4B1A6801E0EB4BC4
:10020000DA6BCC06E40E0123A3401340002B01D08F
:10021000012000E0002010BD38B50020009000BF94
:100220001720FFF7E3FF05460098401C00900321CC
:1002300049020098884201D2002DF1D01720FFF723
:10024000D5FF002801D0012400E00024204638BD5D
:1002500001460020D54AD06B002903D00122920527
:10026000104304E001239B0502469A431046CF4AFF
:10027000D063704700B50120FFF7EAFFFFF7CCFF1E
:100280000020FFF7A5FFC848C0680020C649C86025
:100290000846406800204860084680680020886062
:1002A000084600690020086108464069002048614E
:1002B0000846806900208861BD48C86100BD00B55E
:1002C000FFF7D8FF0121C806FFF774FFB748C06BDE
:1002D0008121C9030843B549C8630846C06B812121
:1002E000C9030840B149C86300BDAF49896889089E
:1002F0008900AD4A9160012802D002280ED106E0A3
:10030000A949896801221143A74A916007E0A649DB
:10031000896803221143A44A916000E000BF00BF36
:100320007047A14989680C2291439F4A9160042833
:1003300002D008280ED106E09B49896804221143A7
:10034000994A916007E0984989680C221143964ABE
:10035000916000E000BF00BF704738B500200090FA
:1003600000BF2220FFF742FF05460098401C009086
:10037000032149020098884201D2002DF1D02220A9
:10038000FFF734FF002801D0012400E000242046BC
:1003900038BD38B50020009000BF2320FFF726FFAE
:1003A00005460098401C00900121C903009888422E
:1003B00001D2002DF1D02320FFF718FF002801D033
:1003C000012400E00024204638BD7849C96B890823
:1003D0008900764AD163012802D002280ED106E0B6
:1003E0007249C96B01221143704AD16307E06F491A
:1003F000C96B032211436D4AD16300E000BF00BF07
:10040000704738B50020009000BF0D20FFF7EEFECA
:1004100005460098401C009003214902009888423C
:1004200001D2002DF1D00D20FFF7E0FE002801D011
:10043000012400E00024204638BD01465B4AD06B11
:100440003F231B0602469A4310460A061043574AAA
:10045000D063704701460020544AD06B002903D076
:100460000122D203104304E00123DB0302469A4336
:1004700010464E4AD063704701464C4AD06B1F234A
:100480001B0402469A4310460A041043474AD063AD
:10049000704738B50020009000BF1520FFF7A6FE7A
:1004A00005460098401C00900321490200988842AC
:1004B00001D2002DF1D01520FFF798FE002801D0C1
:1004C000012400E00024204638BD10B50246364B1A
:1004D000D86880088000034613431846324BD86022
:1004E00058680F2424020346A34318460B021843FE
:1004F0002D4B58605B6804242340042B0BD12A4BFE
:10050000586808231843284B586008240346A3431F
:100510001846254B586010BD01460020224AD0687D
:10052000002902D00422104303E0042302469A4328
:1005300010461D4AD060704701461B4A5068012989
:1005400002D10422104303E0042302469A431046DA
:10055000154A5060704738B50020009000BF212038
:10056000FFF744FE05460098401C00900321490215
:100570000098884201D2002DF1D02120FFF736FEED
:10058000002801D0012400E00024204638BD0146A7
:10059000054AD068F02302469A4310460A011043E8
:1005A000014AD060704700000000024000800D400A
:1005B0001000000810B50246ED4B18698008800055
:1005C000034613431846EA4B18615868F024034663
:1005D000A34318460B011843E54B58605B68DB07E3
:1005E000DB0F002B0BD0E24B586802231843E04B83
:1005F000586002240346A3431846DD4B586010BDE3
:1006000001460020DA4A1069002902D00422104372
:1006100003E0042302469A431046D54A106170470E
:1006200001460020D24A5068002902D0012210431E
:1006300001E040084000CE4A5060704738B50020C5
:10064000009000BF2020FFF7D1FD05460098401C18
:100650000090032149020098884201D2002DF1D078
:100660002020FFF7C3FD002801D0012400E0002472
:10067000204638BD01460020BD4A1069002902D03D
:100680001022104303E0102302469A431046B84A52
:100690001061704701460020B54A1069002902D058
:1006A0009215104304E0FF23013302469A4310469B
:1006B000AF4A106170470146AD4A50693323024684
:1006C0009A43104602460A431046A94A50617047B1
:1006D0000146A74A50690F231B0202469A4310465F
:1006E0000A021043A24A5061704701460020A04A06
:1006F0005069002903D001225203104304E0012372
:100700005B0302469A431046994A5061704701467E
:10071000974A9069F02302469A4310460A01104313
:10072000934A9061704701460020914A90690029E0
:1007300002D05215104304E001235B0202469A43A3
:1007400010468B4A906170470146894A90690009BA
:10075000000102460A431046854A906170470146EF
:100760000020834A9069002902D09215104304E0CA
:10077000FF23013302469A4310467D4A9061704739
:10078000F0B58BB004467A48C068022108400028C2
:1007900001D0784F00E0784F7548C068C007C00F9F
:1007A000002800D07F080A977148C06804210840DB
:1007B000002809D06E4840680005000F401C0190D9
:1007C00001990A9848430A906948C0688005800FDB
:1007D000002804D0012805D0022820D11BE066485B
:1007E00020601FE06248C068000908210840002816
:1007F00002D10A9809900BE05D48C0684006400F9E
:10080000401C0122824011460A980DF076FF0990A3
:100810000998206006E00120C003206002E05748EC
:10082000206000BF00BF5248006902210840002834
:1008300002D05048089001E04F4808904C480069A9
:10084000C007C00F002802D00898400808900898F8
:1008500007904748006904210840002809D044480F
:1008600040680006000F401C01900199079848431A
:100870000790079806903E4800691021084000281C
:1008800002D0069840080690069860603848806953
:10089000050908202840002802D1374803900AE0C3
:1008A0006807400F401C012181400D46294632480F
:1008B0000DF023FF03900398E0602D488569082020
:1008C0002840002802D12B4802900AE06807400F18
:1008D000401C012181400D46294626480DF00DFFA0
:1008E000029002982061224840698007800F00280A
:1008F00004D0012804D0022808D104E0059708E0BC
:100900000898059005E00A98059002E00798059080
:1009100000BF00BF164840698006800F002804D041
:10092000012805D0022807D104E00126F60305E0DE
:10093000124E03E0059E01E0039E00BF00BF0C487D
:100940004069050A08202840002801D104960AE0E1
:100950006807400F401C012181400D462946304662
:100960000DF0CBFE04900498A0600BB0F0BD000029
:100970000000024040787D0100127A00409C000097
:100980000149086070470000008001400021C160FB
:10099000016141600160816041618161C1617047B5
:1009A000F0B589B04568089585680795C5680695CE
:1009B000056905954569049585690395C56902959D
:1009C000002201230324444D00950D88019543E046
:1009D000019DED07ED0F002D35D0089D9D438E78CC
:1009E0009640354308950D7A5600B540079EA643BC
:1009F00035430795069D9D438E7A9640354306956F
:100A0000009E059DB543CE7817461037BE4035434E
:100A10000E79964035430595009E049DB5434E7969
:100A2000BE4035438E799640354304954D7A560045
:100A3000B540039EA64335430395029D9D43CE7961
:100A40009640354302955B00A400009D6D00009523
:100A5000521C019D6D080195019D002DB8D1089D86
:100A60004560079D8560069DC560059D0561049DE7
:100A70004561039D8561029DC56109B0F0BD0021FE
:100A8000C943018000218170C17001714171817180
:100A9000C1710172417281727047024613680B4046
:100AA000002B01D0012000E00020704701460868BB
:100AB0007047016270474162704710B50368002AB1
:100AC00003D01C460C43046002E01C468C430460C7
:100AD00010BD016070470000010001000021C160ED
:100AE000016041608160016241628162C1620163B3
:100AF00041638163C163016641668166C1660161CC
:100B000041618161C161016741678167C1670164BA
:100B100041648164C164016541658165C1650022EC
:100B20008C210A5088210A5084210A5080210A50C1
:100B3000704730B50C6804608C8844608C688460B1
:100B40008C89CD8964190D8A64194D8A64198D8A3E
:100B50006319C360CC8A24010D8B64194D8B641911
:100B60008D8B6219026530BD00210160818081603A
:100B70008181C181018241828182C182018341835D
:100B8000818370470A46C168002A02D001231943B5
:100B900001E049084900C160704701607047416049
:100BA00070478160704730B50B46C16802250C461E
:100BB000AC4321468918C160836030BD0146086896
:100BC000704710B50A46C1680F2424020B46A343A0
:100BD00019468918C16010BD10B50A46C168302495
:100BE0000B46A34319468918C16010BD10B50A46CB
:100BF000C168C0240B46A34319468918C16010BDC3
:100C000010B50A46C16808240B46A3431946891843
:100C1000C16010BD70B50C46016DFE260D46B54392
:100C20002946A5181E01AD196918016570BD10B5DA
:100C30000A46016DF0240B46A343194613015918C7
:100C4000016510BD10B50A46016D0C240B46A34387
:100C500019468918016510BD10B50A46016D0224B8
:100C60000B46A34319468918016510BD0A46016D5C
:100C7000490849008918016570470146CA68082378
:100C80001A40002A01D1002000E0082070470146E8
:100C9000CA6804231A40002A01D1002000E0012084
:100CA000704770B54D88CE88AD190E89AD194E8943
:100CB000AD198E89B601AD19CE89AD190E8AAC1960
:100CC0008D88002D02D001256D0364190A889500D6
:100CD0000646203674514D8ACE8AAB198D8A002D76
:100CE00000D01B1D950006466036735170BD002173
:100CF000018041808180C180018141818181C181E8
:100D0000018241828182C182704730B58D000446E4
:100D100010342B191A6030BD30B58D000446703484
:100D20002B191A6030BDF8B514468E00074660379F
:100D3000F5192A6808261746B7433A46D2182A609A
:100D40008E0007461037F6190096009E3460F8BDF5
:100D5000F8B514468E0007466037F5192A6808264C
:100D60001746B7433A46D2182A608E0007467037B6
:100D7000F6190096009E3460F8BD30B502468D002D
:100D8000144610342B19186830BD30B502468D005A
:100D9000144670342B19186830BD70B503468E00A8
:100DA0001D46203574192068002A03D0FF2501351F
:100DB000284304E0FF2601360546B5432846206057
:100DC00070BD70B503468E001D462035741920682D
:100DD000012676030546B54328468018206070BD7D
:100DE00070B503468E001D46203574192068012613
:100DF00036030546B54328468018206070BD70B59F
:100E000003468E001D462035741920680726760299
:100E10000546B54328468018206070BD70B503466E
:100E20008E001D46203574192068C0260546B5433E
:100E3000284695012818206070BD70B503468E00C5
:100E40001D4620357419206830260546B5432846CE
:100E50008018206070BD70B503468E001D46203599
:100E600074192068000900018018206070BD30B539
:100E700002468D00144620342B191C680125AD0351
:100E80002C40002C01D1002000E0012030BD70B5C5
:100E900003468E001D466035741920688008800066
:100EA0008018206070BD70B503468E001D46603509
:100EB00074192068002A02D00425284303E0042680
:100EC0000546B5432846206070BD70B54D882D019C
:100ED0008E88B600AD19CE88AD190E893603AD19CE
:100EE0004E89B602AD198E893602AB190A88950073
:100EF000064630367351CD892D020E8AAD194E8AC1
:100F0000AC19950006464036745170BD00214180F1
:100F10008180C180018141818181C18101824182C1
:100F20007047F0B504468E0027463037F51928681B
:100F300040094001059E36019700F619F618301851
:100F40002860F0BD70B503468E001D46303574191B
:100F500020680C260546B5432846950028182060D1
:100F600070BD70B503468E001D463035741920687B
:100F7000800880008018206070BD70B503468E0028
:100F80001D4630357419206810260546B54328469D
:100F900015012818206070BDF0B504468E00274664
:100FA0003037F51928681F2636020746B7433846FA
:100FB000059E36039702F6191F02F61930182860AD
:100FC000F0BD70B503468E001D463035741920689B
:100FD0000326B6020546B543284695022818206028
:100FE00070BD70B503468E001D46303574192068FB
:100FF000032636020546B543284615022818206008
:1010000070BD70B503468E001D46303574192068DA
:10101000012636030546B5432846150328182060E7
:1010200070BDF0B5059C1602F61835198F000646FE
:101030004036F551F0BD0146486D70470246536D8C
:101040000B40002B01D1002000E001207047426DD1
:101050008A434265704770B50446042A0BD1E06D9F
:10106000002B03D005460D43284602E005468D437C
:101070002846E06510E0960025468035A859002BEB
:1010800003D005460D43284602E005468D43284619
:10109000950026468036705170BD10B51346826D9E
:1010A000002B03D014460C43224602E014468C4326
:1010B0002246826510BD30B50246546D956D2C40B8
:1010C0000C402346002B01D1002000E0012030BD60
:1010D00010B50246224B9A4202D1224B986A01E097
:1010E000204B586A204B9A4208D1000A000203465E
:1010F0000B43184601231B06184327E01B4B9A425B
:101100000AD1FF2424020346A34318460B021843C6
:1011100001235B06184319E0154B9A4209D1FF24BD
:1011200024040346A34318460B041843D301184371
:101130000CE00B4B9A4209D1FF2424040346A3433D
:1011400018460B04184301239B061843044B9A428C
:1011500002D1044B986201E0024B586210BD0000BE
:101160000080094000000240000007400080074066
:10117000000008400F4810490860704700200E49E1
:10118000086070470C49486070470B498860704799
:101190000A480949086070470948074908607047CC
:1011A0000146054AD2680A40002A01D0012000E029
:1011B000002070475555000000800640AAAA000094
:1011C000CCCC000000210163C162416090218161AB
:1011D0000021016241628162022141630021816339
:1011E00081640321090201637047F0B58BB00446A6
:1011F0000D4601A8FFF7C4FA01980A907D48866A57
:101200007D48844209D17207520F01209040014667
:101210000A980DF072FA0A900DE0784884420AD1DB
:10122000072000023040020A0120904001460A983F
:101230000DF063FA0A90286881080A980DF05DFAAB
:101240000746BA090792BA06920E0692079A9301C8
:10125000069A99180A9A90000DF04FFA0990296899
:10126000099A521AD0010DF048FA089008980228FD
:1012700002D900200BB0F0BD079860620698A0620A
:10128000E66AA888E98808432989084369890843E8
:101290000643E662266B5A480640A8890643266341
:1012A0000120E7E74B21C901016000218180C18055
:1012B000018141810321090281817047002904D005
:1012C000026B01231A43026303E0026B4D4B1A4089
:1012D00002637047002A03D0836B0B43836302E0F1
:1012E000836B8B43836370470246D36B0B408B4207
:1012F00001D1012000E0002070470246136C0B4032
:10130000002B01D0012000E000207047426C0A430E
:1013100042647047CB0013434363704710B5002A03
:1013200003D0836C0B43836404E0836CCC43A4B28E
:101330002340836410BDCAB202607047014608684A
:1013400080B27047002904D0C26A01231A43C262E6
:1013500003E0C26A2B4B1A43C262704770B586B075
:1013600004460D46042D09D101A8FFF709FA019E94
:10137000E121490330460DF0C0F92062206B28437B
:10138000206306B070BD002904D0026B02231A430B
:10139000026304E0026B1B4B5B1E1A43026370473F
:1013A000024693690B40002B01D0012000E0002091
:1013B000704710B502460F4B986A0F4B9A4208D1FE
:1013C00001231B061843000A000203460B4318467C
:1013D0000CE00A4B9A4209D101235B061843FF2413
:1013E00024020346A34318460B021843014B98629C
:1013F00010BD0000000002400000034000800340D8
:101400007F00FFFFFEFF000000BFFEE700BFFEE71A
:1014100000BFFEE700BFFEE77047704770477047A8
:101420007047704770477047704770477047704704
:1014300070477047704770477047704770477047F4
:10144000704770477047704770477047704700BFDC
:10145000FEE700001CB5FC4800780006FA49497810
:1014600009040843F849897809020843F649C9780C
:1014700008430106F44800780006F34A5278120443
:101480001043F14A927812021043EF4AD278104387
:10149000FF221202104000020843EB4909780906B6
:1014A000E94A527812041143E74A92781202114332
:1014B000E54AD2781143FF2212041140090A084379
:1014C000E14909780906E04A527812041143DE4ADC
:1014D000927812021143DC4AD2781143090E084374
:1014E0000190DA4800780006D849097909040843D0
:1014F000D649097A09020843D449097B0843010601
:10150000D24800780006D14A127912041043CF4A1B
:10151000128912021043CD4A127B1043FF2212029D
:10152000104000020843C94909780906C74A928851
:1015300012041143C54A127A12021143C34A127BA4
:101540001143FF2212041140090A0843BF490978D8
:101550000906BE4A127912041143BC4A127A1202D9
:101560001143BA4A127B1143090E0843009007F059
:1015700061FCB7490860B748028801A9B44800680F
:1015800007F0FFF904462146B3A00CF0B5FD002298
:101590001146AF48006807F01DFCB3480288694651
:1015A000AB48006807F0C2FB04462146AFA00CF030
:1015B000A3FD1CBDF3B583B00E46B1B20522D20126
:1015C000362002F0EEFA0546002D02D1ACA00CF058
:1015D00093FD3246686803990CF08CFF9B480078B5
:1015E00000069A490979090408439849097A0902C9
:1015F00008439649097B0843010694480078000691
:10160000924A127912041043904A1289120210432E
:101610008E4A127B1043FF22120210400002084340
:101620008A4909780906894A928812041143874A2F
:10163000127A12021143854A127B1143FF221204CF
:101640001140090A08438149097809067F4A12793D
:10165000120411437D4A127A120211437B4A127B13
:101660001143090E08430290774800780006764936
:101670004978090408437449897809020843724982
:10168000C978084301067048007800066E4A52780F
:10169000120410436C4A9278120210436A4AD278BC
:1016A0001043FF22120210400002084366490978E5
:1016B0000906654A527812041143634A927812026D
:1016C0001143614AD2781143FF2212041140090AE2
:1016D00008435D49097809065B4A527812041143B0
:1016E000594A927812021143574AD2781143090E8F
:1016F0000843019002A809F081FD044666A06168D4
:101700000CF0FAFC214632316BA00CF0F5FC2146BE
:101710002A3171A00CF0F0FC77A0A1680CF0ECFC71
:101720004B48006801687CA00CF0E6FC4848006863
:10173000418A81A00CF0E0FC45480068416886A021
:101740000CF0DAFC42480068818A8BA00CF0D4FCD3
:1017500045480094038802AA29463D48006807F0DE
:1017600036FA074639468CA00CF0C6FC284602F033
:10177000B2F905B0F0BD10B500218B48817700208B
:101780008949487702218948FFF787F9002803D063
:1017900001218548817702E0002183488177042177
:1017A0008248FFF77AF9002803D001207E49487764
:1017B00002E000207C49487710BD0EB501210806E3
:1017C000FEF7F8FC06216846018000218170017255
:1017D000012181720221417269467448FFF7E0F8E5
:1017E0000EBD10B500240220FEF77FFD00E000BF13
:1017F000FEF7B3FD012805D02046641C01218904B1
:101800008842F4D3FEF7A9FD012801D0002010BDC5
:1018100003210220FEF759FE00240120FEF78CFE72
:1018200000E000BFFEF797FE012805D02046641CAB
:10183000012189048842F4D3FEF78DFE012801D0EE
:101840000020E4E7B4E000002200002000000020B7
:101850003C000020260000205544505F62696E6401
:101860003A2025640A000000280000205544505FFB
:10187000636F6E6E6563743A2025640A0000000091
:101880006572726F72207769746820706275665F26
:10189000616C6C6F630000004E6574696620706156
:1018A00072616D657465722069705F616464722035
:1018B0002020307825780A004E65746966207061B2
:1018C00072616D6574657220686F73746E616D65A9
:1018D000202025730A0000004E657469662070613F
:1018E00072616D657465722068776164647220202E
:1018F0002020307825780A004E6574696620706172
:1019000072616D65746572206E65746D61736B20B4
:101910002020307825780A0055445020706172618B
:101920006D65746572206C6F63616C5F69702020F7
:101930002020307825780A0055445020706172616B
:101940006D65746572206C6F63616C5F706F72742B
:101950002020307825780A0055445020706172614B
:101960006D657465722072656D6F74655F69702056
:101970002020307825780A0055445020706172612B
:101980006D657465722072656D6F74655F706F72DE
:101990007420307825780A005544505F73656E6472
:1019A0003A2025640A0000000008002000000C40D6
:1019B00001210820FEF7FEFB2020FEF7E1FF0020BA
:1019C000FEF7E5FD0120FEF7A7FDFF200130FEF741
:1019D000FFFB0BF059FD012019E710B50121480369
:1019E000FEF7E8FBFFF7C6FB0420FFF7CBFB00BFC9
:1019F0000120FFF7D5FB0128FAD1FE48FFF7C5FB10
:101A0000FFF7CAFBFFF7C4FB10BD00B587B002218A
:101A1000684641720121817281701021018001218B
:101A20000172C805FEF7C6FB6946F348FEF7B8FF2A
:101A30000021684681700821018001210172C805DA
:101A4000FEF7B8FB6946EC48FEF7AAFF01214020EB
:101A5000FEF7B0FB0021E948FFF7ABFCE1204002B4
:101A60000390602168460182002141828182102119
:101A7000C18203210902018303A9E048FFF7B5FBF6
:101A80000121DE48FFF71AFC07B000BD70B504461F
:101A90000D4600BF8021D948FFF782FC0128F9D10B
:101AA000A1B2D648FFF747FC204670BD0FB470B511
:101AB00088B0149E002520220CA96846FEF75EFB24
:101AC000002404E06846005D4540601CC4B21E2C42
:101AD000F8D3284608B070BC08BC04B018470FB44F
:101AE000FCB56E46F68BF0B26E46F68B31126E4642
:101AF000368CF2B26E46368C331207AE347C368AA0
:101B0000351207AEB67E019607AE768B361200967A
:101B10006E46367FBA4F3E703E467070B170F270BE
:101B2000337108AEB6787E7108AEF678BE7108AE35
:101B30003679FE7108AEB6793E7207AEF67A7E72DD
:101B400007AE367BBE7207AE767BFE7207AEB67B03
:101B50003E733E467473B57308AEB67BFE7308AE33
:101B6000367C3E7407AE767D7E7407AEB67DBE745D
:101B700007AEF67DFE7407AE367E3E75019E7E751D
:101B8000009EBE7508AE367EFE7508AE767E760087
:101B900007AFBF7F3E439A4F3E7608AEF67E7E7615
:101BA000FCBC08BC04B0184710B50BF05FFE082061
:101BB000FEF7B7FB00BFFEF7ECFB0128FBD10021CD
:101BC000032000070BF059FE00200BF064FE0121FA
:101BD00008060BF06BFE032000070BF098FE894807
:101BE0000BF0C5FE0E208749486001200876C875B5
:101BF0000003C861002183484030C17582480078E5
:101C000000028149497808437E49583188807E48DE
:101C1000807800027C49C97808437A495831488065
:101C2000794800790002784949790843754940317B
:101C30000883012000034039C8600021714840300A
:101C400001740121417400218174C17401754175D1
:101C5000012181750021C1756A49032000070BF03D
:101C6000EDFE0121032000070BF045FE10BD10B56D
:101C7000032000070BF097FF10BD10B5002063494B
:101C80000870FF2048801A20888001208871C87160
:101C9000002008725E495D48018201218173417311
:101CA000002101733B21C1721E2058498872002017
:101CB000887408220A3108460A300CF01BFC53488D
:101CC000C07901281DD15148007B5049897988424B
:101CD0000EDA4E48C07D401EC1B24C48C175007B33
:101CE00018304A498979401AC1B24848817510E0D4
:101CF0004648007B454989794018C1B243488175FF
:101D000007E04248807D414989794018C1B23F4887
:101D100081753E48C07D002841D13C48007E401E70
:101D2000C1B23A480176007E00280AD03748007ECA
:101D3000022806D03548007E401E3649095C3348EB
:101D4000C1753248007E002809D11F212F48C17576
:101D50000C210176408B401E81B22C4841832B49D7
:101D6000097E02290BD12949488BC117890F09180F
:101D700089108900411A02D11D212448C1752349C7
:101D8000097E02290BD12149488BC117890F0918F7
:101D900089108900411A02D01C211C48C1750020FD
:101DA0001A49087748770021184881770020174999
:101DB000C87710BD70B5044620783C2804DB0020AD
:101DC00020706078401C607060783C2804DB002044
:101DD0006070A078401CA070A078182805DBA0785F
:101DE0001838A070E078401CE070E1782079401E3F
:101DF000084A11E0C409000000800B4000000340C5
:101E000020080020480800201600002000080020BC
:101E1000E607000030000020105C814227DD2079B9
:101E200002281FD1E0781D281CD1E688F017800F0A
:101E3000801980108000301A05D1E08864210CF0F0
:101E400066FC002913D1E588E817800F401980103F
:101E50008000281A06D1E088FF2191310CF057FC50
:101E6000002904D02079401C20710120E0702079E5
:101E70000D2804DB01202071E088401CE08070BD4B
:101E80000EB50121C805FEF795F9A021684601802D
:101E900001218170002101720121817203214172AF
:101EA0006946D648FEF77CFD0EBD10B58EB000F039
:101EB000D2FCD3490968401A7ED000F0CCFCD0494E
:101EC0000860D0480078401CCE4908700846807AE7
:101ED000401C88720846007D401C0875FFF74BFCCB
:101EE000C848017868460176C648418868464183FB
:101EF000C448818868468183C24881796846817771
:101F0000C048C1796846C177BE48017A08A8017007
:101F1000BC48817A08A88170BA48C17A06A8C17203
:101F2000B848017B06A80173B648417B06A84173F7
:101F3000B448817B06A88173B248018A06A8018251
:101F4000B048817C08A88172AE48017D08A8017361
:101F5000AC48417D06A84175AA48817D06A88175D7
:101F6000A848C17D06A8C175A648017E06A80176CD
:101F7000A448418B06A84183A248017F08A80175A7
:101F8000A048417F08A841759E48817F06A88177B7
:101F90009C48C17F08A8C175202004900AA80FC8DA
:101FA0006C460FC406A80FC8FFF780FD9549C87797
:101FB00008460178684600E0E0E0017691484188F3
:101FC000684641838F488188684681838D4881793E
:101FD000684681778B48C1796846C1778948017A1C
:101FE00008A801708748817A08A881708548C17A5D
:101FF00006A8C1728348017B06A801738148417B12
:1020000006A841737F48817B06A881737D48018AB9
:1020100006A801827B48817C08A881727948017DED
:1020200008A801737748417D06A841757548817DF0
:1020300006A881757348C17D06A8C1757148017EE7
:1020400006A801766F48418B06A841836D48017F41
:1020500008A801756B48417F08A841756948817FD0
:1020600006A881776748C17F08A8C1750AA80FC86C
:102070006C460FC406A80FC8FFF731FD6148407FCA
:1020800040006049897F0843002806D0012809D014
:1020900002280CD0032814D10EE000215A4800F089
:1020A000F5F80EE00121584800F0F0F809E00321AE
:1020B000554800F0EBF804E00221534800F0E6F840
:1020C00000BF00BF1A215148FFF774FA00214E48A3
:1020D00000F0DCF84E49032000070BF09FFD0024C0
:1020E00006E060004A4A115A4AA00CF005F8641C48
:1020F000032CF6DB49A00BF0FFFF002405E04B4862
:10210000015D4BA00BF0F8FF641C062CF7DB4AA026
:102110000BF0F2FF002405E03C48015D47A00BF006
:10212000EBFF641C1A2CF7DB3648807F4000354AF1
:10213000527F1043014642A00BF0DEFF3148007D84
:102140003049497D2F4A927D2E4BDB7D05930692C7
:10215000079108902B48017E428B807A294BDB7ACD
:1021600001930392049102902648007B0090254839
:10217000437B827B018A37A00BF0BEFF0EB010BDFF
:102180000BF0C8F9FFF72DFB1F4800F0CEF8032134
:102190001D4800F07BF8FFF720FC00F009F9FFF77D
:1021A0000CFB322000F047F9FFF72FFC1F4800F02E
:1021B00099FB1E4800F07FFC00F0A4F90BF0D9F861
:1021C000FFF748F9FFF759FD00F0C6FA00200C4967
:1021D000086011E000F088FA0948006800F088FA09
:1021E00008480A30FFF7E6FD06481430FFF7E2FD25
:1021F000FFF75BFEFEF7CCFFECE7000000800B4032
:102200002C0000200008002004EC00002008002022
:102210003A08002025325820000000000A50726F52
:102220006720535049204D41433A200016000020BA
:10223000253258203A0000000A000000255800000E
:102240000A617474726962757465733A2025640A50
:10225000000000000A20206D736B3A2025642025C1
:10226000642025642025642025642025640A6C6F81
:1022700063616C3A20256420256420256420256450
:102280002025642025640A0A0A0A0A0070B504465B
:102290000D46002D06D0012D0DD0022D14D0032D9A
:1022A00024D11AE0A189A068FEF705FCA188206866
:1022B000FEF701FC1AE0A189A068FEF7FAFBA188ED
:1022C0002068FEF7F8FB11E0A189A068FEF7F3FB98
:1022D000A1882068FEF7EDFB08E0A189A068FEF761
:1022E000E8FBA1882068FEF7E4FB00BF00BF70BDDB
:1022F0003EB5044621680903CA0E012191400846F3
:102300000121FDF757FF6846FEF7B9FBA188684633
:1023100001800121817000210172012181724172CD
:1023200069462068FEF73CFB3EBD10B504462046DA
:102330000830FFF7DDFF2046FFF7DAFF10BD000091
:1023400070B504460D4600BF0E2000F082F800BFB5
:1023500000BF0E20012181405E4A116000BF5E482F
:10236000006828605D48006820605B484030406934
:10237000C007C00F0028E7D10E2000F06AF870BD3A
:102380001CB5694601A8FFF7DBFF00988409019896
:102390008004044320461CBD1CB5694601A8FFF714
:1023A000CFFF0098040C01980002044320461CBD96
:1023B00000B589B001218803FDF7FCFE4648FEF711
:1023C0008DFB01A8FEF7D0FB00216846018144483F
:1023D00003906846018241828182C18201834183E8
:1023E0008183C183018401A93B48FEF7A2FB002140
:1023F0003948FEF76DFE012211463748FEF74DFEC3
:1024000003210E2000F02DF80E2000F022F801210B
:102410003148FEF7B7FB09B000BD30480068401CEA
:102420002E4908602C4840304069400840002A4945
:1024300040314861704770B50446FFF7A1FF05467B
:1024400000BFFFF79DFF411B264860438142F8D340
:1024500070BDC206D20E012191401E4A803A116021
:10246000704710B5002819DA1F4A03071B0F083BF5
:102470009B089B00D2588307DC0EFF23A3409A439E
:102480008B071B0E8407E40EA3401A43164B040768
:10249000240F083CA408A4001A511AE00D4A803AFF
:1024A00003231B02D21883089B00D2588307DC0E3B
:1024B000FF23A3409A438B071B0E8407E40EA3401F
:1024C0001A43044B803B032424021B198408A400F4
:1024D0001A5110BD80E100E00000074040000020DC
:1024E000FFFFFF001A0600001CED00E0014600207F
:1024F000C043704701460020C0437047704700BF8B
:10250000FEE7000000B587B000F0E8FD00F0B7FF7F
:1025100084480078000683494978090408438149C2
:102520008978090208437F49C978084301067D4834
:10253000007800067B4A527812041043794A927858
:1025400012021043774AD2781043FF221202104041
:1025500000020843734909780906724A5278120446
:102560001143704A9278120211436E4AD278114395
:10257000FF2212041140090A08436A490978090632
:10258000684A527812041143664A92781202114343
:10259000644AD2781143090E0843069062480078D5
:1025A000000661494978090408435F4989780902AE
:1025B00008435D49C978084301065B480078000676
:1025C000594A527812041043574A92781202104323
:1025D000554AD2781043FF221202104000020843ED
:1025E000514909780906504A5278120411434E4A5B
:1025F0009278120211434C4AD2781143FF221204FE
:102600001140090A0843484909780906464A5278A0
:1026100012041143444A927812021143424AD2787A
:102620001143090E084305904048007800063F49D1
:102630004978090408433D498978090208433B4920
:10264000C97808430106394800780006374A5278AD
:1026500012041043354A927812021043334AD2785A
:102660001043FF2212021040000208432F4909784C
:1026700009062E4A5278120411432C4A927812020B
:1026800011432A4AD2781143FF2212041140090A49
:102690000843264909780906244A5278120411434E
:1026A000224A927812021143204AD2781143090E2D
:1026B000084304901E481F49002204AB0092019178
:1026C000029005AA06A91C4801F01AF81A4801F060
:1026D000DFF8194801F03AF9174801F052F917A04C
:1026E0000BF00AFD07B000BD10B50AF046F910BDA9
:1026F00001B5174900980968401AFA2804D314490B
:102700000098086002F0CAFB124900980968401A54
:102710007D21C900884204D30E490098086007F063
:10272000B7FF08BD580000205C00002060000020BA
:1027300035CA0000EFC90000C00800206E65746350
:102740006F6E66206973207365742075700A0000CF
:102750004C0000205000002000B597B00121480631
:10276000FDF728FD01216846817101738173022103
:1027700041738021818001A95448FEF711F901219C
:10278000C803FDF717FD5248FEF7A8F90FA8FEF79A
:10279000EBF9504910A80180481E1190002110A8A3
:1027A000018141818181C181018241828182C18215
:1027B00001830FA94648FEF7BCF909A8FEF797FA6E
:1027C00000216846C18407214902C1850021818416
:1027D00009A93F48FEF765FAFF222D3200213C4847
:1027E000FEF793FA04A8FEF791FB02216846818266
:1027F0000121C182022141830121818300210182C3
:1028000004A93348FEF761FB00213148FEF760FC64
:10281000012211462E48FEF740FC03210F2000F054
:102820001DF80F20012181402B4A116000BF0121BA
:102830002748FEF7A7F917B000BD28480068401CDC
:10284000264908602248403040694008400020493D
:1028500040314861704721480068704710B5002832
:1028600019DA1F4A03071B0F083B9B089B00D2582D
:102870008307DC0EFF23A3409A438B071B0E8407BC
:10288000E40EA3401A43164B0407240F083CA40887
:10289000A4001A5118E0104A03231B02D21883081F
:1028A0009B00D2588307DC0EFF23A3409A438B077B
:1028B0001B0E8407E40EA3401A43074B0324240293
:1028C0001B198408A4001A5110BD000000800C40A0
:1028D000008007401027000000E100E064000020B5
:1028E0001CED00E03EB504460121C805FDF762FC81
:1028F00040216846018000218170017201218172AE
:102900000221417269468948FEF74AF83D21490192
:1029100068460180012181700021017201218172CC
:102920000221417269468148FEF73AF8FF210131E0
:102930007E48FEF7BEF8032149027C48FEF7BBF84B
:102940003EBD002101E04A1C91B28142FBDB704791
:1029500070B50446002536E080217448FEF7ABF8D8
:1029600080202040002807D020217048FEF7A1F8E1
:102970006FA00BF0C1FB06E020216C48FEF79BF82E
:102980006CA00BF0B9FB6006040E6B4909780A22B3
:1029900051430846FFF7D5FF80216448FEF789F8C8
:1029A00065490978142251430846FFF7CAFF802180
:1029B0005E48FEF780F8604909788A008818FFF7BA
:1029C000C0FF681CC5B2082DC6DB70BD70B5002500
:1029D00032E080215548FEF76EF8574909788A00A1
:1029E0008818FFF7AEFF80215048FEF762F8524981
:1029F00009788A008818FFF7A4FF40214B48FEF7AA
:102A00004CF8002809D0601CC4B2072D01DA60061A
:102A1000040E47A00BF070FB06E0072D01DA6006FC
:102A2000040E44A00BF068FB434909788A0088181B
:102A3000FFF787FF681CC5B2082DCADB80213B4821
:102A4000FEF739F83C4909788A008818FFF779FFC2
:102A5000204670BD7FB50546002406E0002002A98F
:102A6000085569460855601CC4B2082CF6DB33A033
:102A70000BF042FBFF2101312C48FEF71CF83348D4
:102A80000078FFF765FF32A00BF036FB2846FFF712
:102A90005FFF294635A00BF02FFBFFF797FF064697
:102AA00037A00BF029FBFF2101312048FEF701F888
:102AB000304604B070BD70B5054635A00BF01CFB68
:102AC000012189021948FDF7F4FF00240AE021469C
:102AD00034A00BF011FBA11FC8B2FFF7BBFF2855B4
:102AE000601CC4B2062CF2DB012189020F48FDF7FD
:102AF000E2FF06222E4928460BF05CFC002809D094
:102B000006222B49891D28460BF054FC002801D0D1
:102B1000012609E000BF27A00BF0EEFA03E0012137
:102B20002748FFF7B3FBFAE7304670BD00800B4043
:102B30003100000030000000690000206275666608
:102B4000657220636C65616E65640A006800002030
:102B50007265616420696E737472756374696F6EF7
:102B60002073656E6465640A000000000A61646495
:102B70007265732025642073656E6465640A0000C5
:102B80000A646174612072656369657665640A0030
:102B9000656570726F6D2072656164207374617217
:102BA000740A000073746167652025640A000000E0
:102BB00024EC00000A4D4143206572726F724E0092
:102BC00014EC000001460806000CFF2212020A4025
:102BD00012121043704701460806FF2212020A40F3
:102BE00012021043FF2212040A40120A10430A0E76
:102BF00010437047F7B505460E4630460BF008FC0B
:102C00000746002F01D12846FEBD2C460DE0207856
:102C10003178884208D13A46314620460BF01AFCFA
:102C2000002801D12046EFE7641C2078002804D05A
:102C3000E119029828188142E9D90020E4E770B52B
:102C400002460B4600BF1178521C1D785B1CA9423E
:102C500011D0202008430446612C09DB7A2C07DCC4
:102C6000202028430646B44201D0012070BD01E077
:102C70000120FBE700BF0029E5D10020F6E7F0B511
:102C800003460C4600BF19785B1C2578641CA942DA
:102C900011D0202008430646612E09DB7A2E07DC7E
:102CA000202028430746BE4201D00120F0BD01E0AC
:102CB0000120FBE700BF521E002A01D00029E2D10B
:102CC0000020F3E7F7B582B006460F463446F01908
:102CD000451E0498002801DB049801E00498404256
:102CE0000190022F05D2012F01D10020307005B0D4
:102CF000F0BD0498002802DA2D202070641C00200A
:102D000028700FE00A2101980BF001FD3031C8B2A4
:102D100000906D1E009828700A2101980BF0F7FCB6
:102D2000019000BF0198002801D0A542EAD801987F
:102D3000002802D000203070D9E72878002806D17A
:102D400030202070641C00202070641CCFE7F01934
:102D5000421B294620460BF031FC00BFC7E7F8B5FF
:102D600005460A462B46002000900021DE07F60F9C
:102D7000002E06D0002A04DD18786F4678705B1CA0
:102D8000521E1C4603E02088A41C4118921E012AF2
:102D9000F9DC002A02DD20786F463870684600882A
:102DA0000918080C8FB2C119080C8FB2C119002E76
:102DB00007D00806000CFF273F020F403F0A3843A8
:102DC000014688B2F8BDFFB581B006460F461C46E5
:102DD00000200090354620E000BF00BF6989686888
:102DE000FFF7BDFF0419200CA1B244186889C10F78
:102DF000091849104900411A0ED00098002801D145
:102E0000012000E0002000902006000CFF210902B4
:102E10002140090A084304462D68002DDCD10098A2
:102E2000002807D02006000CFF2109022140090AD2
:102E3000084304463846FFF7C5FE04190398FFF718
:102E4000C1FE0419200CA1B24418200CA1B24418F0
:102E500000BF00BFE04380B205B0F0BDFFB581B058
:102E60001E460A9F3568ACB2280C04193D68A8B20A
:102E70000419280C0419200CA1B24418200CA1B28A
:102E80004418234601A807C8FFF79DFF05B0F0BD11
:102E9000FFB581B004460D4616460A9F009732469C
:102EA00029462046049BFFF7D9FF05B0F0BDFFB5CA
:102EB00081B01D460A9C00200090019E28E000BFC2
:102EC00000BF7789AF4200DD2F4639467068FFF7B3
:102ED00046FF0419E81B85B200BF00BF200CA1B259
:102EE00044187089C10F091849104900411A0ED0C1
:102EF0000098002801D1012000E000200090200669
:102F0000000CFF2109022140090A084304463668E3
:102F1000002E01D0002DD2DC0098002807D020061A
:102F2000000CFF2109022140090A084304460298C7
:102F3000FFF748FE04190398FFF744FE0419200C1C
:102F4000A1B24418200CA1B2441800BF00BFE04356
:102F500080B205B0F0BDFFB581B006460F460A98B5
:102F60000568ACB2280C04190B980568A8B20419BE
:102F7000280C0419200CA1B24418200CA1B244184A
:102F8000009439463046049B039AFFF790FF05B042
:102F9000F0BDFFB583B004460D4616460C9F0D9854
:102FA00000970190324629462046069BFFF7D3FF43
:102FB00007B0F0BD30B504460D4629462046FFF760
:102FC000CEFEC04380B230BDF0B5064600270024D7
:102FD00035461DE069896868FFF7C1FE0419200CB9
:102FE000A1B244186889C10F091849104900411A53
:102FF0000DD0002F01D1012000E00020074620065F
:10300000000CFF2109022140090A084304462D68EB
:10301000002DDFD1002F07D02006000CFF21090270
:103020002140090A08430446E04380B2F0BD000095
:103030000146FB480068401870470146F848008880
:10304000081A80B27047F8B5044600BF00BF00BF41
:1030500000BF00BF00BF00BF00BF2088FFF7E8FF30
:103060000546AC421BD02879002818D1ED480068ED
:10307000854214D0EC480068A84201D1EA480460B7
:103080002888208028880521C902884207D0204648
:10309000FFF7D3FF07462888FFF7CAFF47806088FD
:1030A000FFF7C6FF0646A64217D03079002814D194
:1030B000DD480068A04201D1DB48066020883080EE
:1030C00020880521C902884207D03046FFF7B5FFA6
:1030D00007462088FFF7ACFF4780F8BD10B500BF5A
:1030E00000BFD24880088000CD49086008460468C7
:1030F0000520C00220800020608020710520C002D1
:10310000FFF796FFC749086001200968087105208C
:10311000C002C44909680880C24909684880C0489B
:103120000068C149086010BDF8B504462046FFF7A5
:1031300084FF05462088FFF77BFF06466088FFF77F
:1031400077FF074620880521C90288420FD860888A
:1031500088420CD86088A84202D03888A84206D19C
:10316000B0480068864204D07088A84201D0002090
:10317000F8BD0120FCE770B50546002D02D100BF67
:1031800000BF70BDA807800F002806D000BF00BF99
:1031900000BF00BF00BF00BFF3E72C46083CA048BB
:1031A0000068844205D328460C309E49096888424D
:1031B00006D900BF00BF00BF00BF00BF00BFE0E7EF
:1031C0002079002806D100BF00BF00BF00BF00BFAC
:1031D00000BFD6E72046FFF7A7FF002806D100BFB3
:1031E00000BF00BF00BF00BF00BFCAE700202071C2
:1031F0008D480068844201D28B4804602046FFF766
:1032000022FF00BFBDE7F3B583B00498C01C80085F
:10321000800085B20C2D00D20C250520C00285420D
:1032200002D80498854202DA002005B0F0BD00BF44
:1032300000BF7B4903980968884204D37949039801
:103240000968884205D300BF00BF00BF00BF0398D4
:10325000EBE70398083801900198FFF7EEFE064669
:1032600001980188881B083880B2029000BF00BF17
:103270000298854201DD0020D7E70298854201D1FE
:103280000398D2E701990888FFF7D2FE0446207917
:10329000002825D100BF00BF2088009030460830AC
:1032A000401987B260480068A04204D13846FFF751
:1032B000BFFE5D4908603846FFF7BAFE04460020AD
:1032C0002071009820806680019807802088052161
:1032D000C902884203D02088FFF7AAFE478025E074
:1032E000284614300299884220D8304608304019C8
:1032F00087B200BF00BF3846FFF79AFE04464A482F
:103300000068844201D2484804600020207101987E
:103310000088208066800198078020880521C902E6
:10332000884203D02088FFF783FE478003987CE71C
:10333000F1B582B00298002800D1FEBD0298C01CF1
:103340008008800085B20C2D00D20C250520C0021B
:10335000854202D80298854201DA0020EDE7324822
:103360000068FFF76AFE064666E03046FFF760FE3B
:103370000446207900285BD1218830460830081A9D
:10338000A84255D3218830460830091A28461430FF
:1033900081421ED330460830401980B2019000BFF0
:1033A00000BF0198FFF744FE0746002139712188CC
:1033B00039807E8001982080012020713888052185
:1033C000C902884207D03888FFF732FE0199418050
:1033D00001E00120207114480068844217D112488E
:1033E0000068009004E000990888FFF721FE009033
:1033F00000980079002804D00A490098096888429A
:10340000F1D109490098086000BF00BF00BF00BFAC
:1034100000BF00BF00BF00BF00BF204608308CE7E0
:103420006C000020700000207400002013090020B0
:103430003046FFF7FDFD06880520C002401BB04264
:1034400093D800BF00BF002077E7F8B506460F46C7
:10345000304678430446A0B2A04203D000BF00BF6C
:103460000020F8BDA0B2FFF763FF0546002D03D092
:10347000214628460BF0E6F82846F2E7704700B5EB
:10348000002106E08A00324B9858FFF7F7FF481CEE
:1034900081B20929F6D300BD70B50446A188C91CC4
:1034A0008908890088B2FFF743FF0546002D03D045
:1034B00000BF00BF284670BD00BF00BF0020FAE774
:1034C00010B5044600BF00BF002C00D110BD20463F
:1034D000FFF7E2FFFAE770B5044600BF092C01DBF5
:1034E000002070BD00BFA100194A5058FFF7D4FF5B
:1034F00005462846F5E770B506460C4600BF00BFF6
:1035000025462846FFF737FE70BD70B505460C46C8
:1035100000BF00BF002D01D0002C00D170BD21469E
:103520002846FFF7E8FF00BFF8E770B504460D46F0
:1035300000BF092C00DB70BD00BF002D00D1FAE7F1
:10354000A100034A50582946FFF7D5FF00BFF2E714
:1035500078EC0000704770B505460C4600BF00BF10
:1035600000BF00BF3120005D18210840002804D0B2
:103570002146284609F05EFA70BD2146284607F02C
:10358000E0FEF9E770B504460D4600BF00BF3120EC
:10359000005D04210840002805D03120005DC007EF
:1035A000C00F002800D170BDE807C00F00280CD064
:1035B0006068002809D03120005D082108400028FB
:1035C00003D0211D204607F058F800BFEBE770B587
:1035D00004460D462946204602F0ACF8294620460E
:1035E00005F03EFC70BDF8B505460C46164600BF1A
:1035F00000BF00BF00BF20686968884201D1012078
:1036000000E00020002815D1206800906868306034
:1036100000BF00BF69463046FFF7D9FF002C01D13B
:10362000002000E02068686001212846FFF7AAFF1B
:103630000120F8BD0020FCE710B503460868DC68EF
:10364000A04201D1012000E00020002808D100297B
:1036500000D100E00868D86000BF00BF012010BDA5
:103660000020FCE710B5034608689C68A04201D121
:10367000012000E00020002808D1002900D100E04E
:103680000868986000BF00BF012010BD0020FCE763
:10369000FFB583B00C4615461E46002002900190EF
:1036A000002C00D1FE4C002D00D1FD4D002E00D18C
:1036B000FB4E002C02D02068002801D1012000E040
:1036C00000200746002F04D06A4621460398FFF7E2
:1036D0008AFF2946029A0398FFF7C4FF3146019AF0
:1036E0000398FFF7A9FF002F04D16A4621460398EB
:1036F000FFF779FF07B0F0BD03460B20C0437047CA
:10370000F8B504460D4616461F4600BF002C00D1F2
:10371000F8BD00BF00BF0798002800D1F8E700BF40
:10372000002D00D1DE4D002E00D1DD4E002F00D146
:10373000DB4F00206060A060E060DA48606100203C
:10374000208500213120015521620698E061D6488C
:10375000017834200155089820613B4632462946BD
:103760002046FFF795FF204607998847002801D09B
:103770000020CDE700BF3422125DFF2A02D10022D3
:1037800034231A550021C94A106811E000BF00BF58
:10379000491C00BF00BF3422125C34231B5D9A42D7
:1037A00005D13422125D521C34231A5502E0006800
:1037B0000028EBD100BF0028DDD13420005DFE28B9
:1037C00003D10020B849087004E03420005D401C9B
:1037D000B5490870B54800682060B448046000BF6F
:1037E00000BF00BF00BF00BF00BF00BF00BF00BFE1
:1037F00000BF00BF00BF00BF00BF00BF00BF20462A
:1038000086E7FEB507460C4615461E4600231A46B7
:1038100019463846029601950094FFF771FFFEBDE8
:1038200038B505460C4600BF002D00D138BD00BF9D
:10383000002C00D19A4C6A4621462846FFF7D3FE59
:1038400000BFF3E770B504460D46002600BF002C0C
:1038500000D170BD00BF002D00D1914D32462946E8
:103860002046FFF7FFFE00BFF3E770B504460D46A4
:10387000002600BF002C00D170BD00BF002D00D17C
:10388000874D324629462046FFF7D6FE00BFF3E7B4
:103890008749086000BF00BF704710B5044600BFED
:1038A000002C00D110BD00BF3120005DC007C00F4B
:1038B000002810D000BF3120005DFE2108403121DA
:1038C000085500BF3120005D08210840002802D0C3
:1038D000204607F06FF800BFE4E710B50446002C5F
:1038E00000D110BD6068002803D00021201DFFF723
:1038F0006EFE3120005DC007C00F002802D02046B8
:10390000FFF7CBFF6A480068A04202D10020FFF712
:10391000BFFF66480068A04203D164492068086080
:1039200010E06249086806E00168A14202D12168FE
:10393000016002E000680028F6D100BF002800D135
:10394000CFE700BF00BF00BF00BFCAE710B5044605
:1039500000BF002C00D110BD00BF3120005DC007AA
:10396000C00F00280BD100BF3120005D01210843AA
:103970003121085500BF03212046FFF703FE00BF99
:10398000E9E710B5044600BF002C00D110BD00BF10
:103990003120005D0421084000280DD100BF3120F6
:1039A000005D08433121085500BF204606F010FD98
:1039B00003212046FFF7E6FD00BFE7E700BF002830
:1039C00000D1704700BF3121095C04221140002959
:1039D00007D000BF3121095CFB2211403122115474
:1039E00000BF00BFEDE770B50546002D00D170BDEA
:1039F000A81C0AF0C8FCC6B22C48046812E03420A7
:103A0000005DB0420DD129783220005D814208D19D
:103A100069783320005D814203D100BF00BF20469A
:103A2000E5E72468002CEAD100BF00BF0020DEE7F4
:103A300070B505462846FFF7D6FF0446002C04D093
:103A40003420005D401CC0B270BD0020FCE702467F
:103A5000002A0DD01548016808E03420405C401C65
:103A6000C0B2904201D10846704709680029F4D1DC
:103A70000020F9E770B506460C463046FFF7E7FF31
:103A80000546002D16D03220405D20703320405D69
:103A90006070721E0421A01CFFF714F9204670BD4F
:103AA00018ED0000F93600008000002078000020AA
:103AB0007C0000200020F2E770B5059D049C0026E4
:103AC0000660416002814381047345730126867359
:103AD0000026C67370BDFEB50446002C04D100BF9D
:103AE00000BF00BF00BFFEBD00BF00BF00263AE020
:103AF00000BF00BFA07B401EC0B2A0730190019820
:103B000000282CD1276800BF00BF207B05072D0FA0
:103B1000607B02210840002807D0009400BF00BF4E
:103B2000009801692046884715E0022D04D12146FE
:103B30000820FFF7FAFC0EE0012D04D121460720F2
:103B4000FFF7F3FC07E0002D03D12046FFF713FB3E
:103B500001E000BF00BF701CC6B23C4602E000BFDF
:103B600000BF002400BF002CC2D13046BBE7FEB529
:103B700006460C46174600BF00BF0720FFF7ABFC08
:103B80000546002D02D100BF00BFFEBD0020234628
:103B900022463146009701902846FFF78DFF2846C0
:103BA000F3E7F7B586B00D46069F00BF00BF089843
:103BB000012809D0412806D0FF38833800280AD0D0
:103BC000FE2873D152E000BF29460020089AFFF773
:103BD000CEFF044681E0002400200590049500BF3C
:103BE0000820FFF778FC0646002E07D1002C02D0F3
:103BF0002046FFF770FF002009B0F0BDF81C8008D8
:103C00008000FF21F531081A81B20498814201DD5C
:103C1000049806E0F81C80088000FF21F531081A9E
:103C200080B2039000210898019100903046103036
:103C3000C019C01C810889003046039B049AFFF715
:103C40003BFF00BF00BF00BF00BF002C01D13446C6
:103C500001E005980660059603990498401A80B221
:103C60000490002704980028BADC36E0F81C81088C
:103C70008900E81C80088000081886B230461030A1
:103C800080B20590E81C80088000B04205D8E81C8E
:103C9000810889000598814201D90020ACE7059888
:103CA000FFF746FB0446002C01D1A5E711E00021F7
:103CB00008980191009020461030C019C01C81085E
:103CC00089002B462A462046FFF7F6FE00BF00BFBC
:103CD00003E000BF00BF00208EE700BF00BF00BFB1
:103CE000204689E7FFB583B006460C460C9F029636
:103CF00000BF00BF0298C01C8008800001190D9809
:103D0000814204D900BF00BF002007B0F0BD002FE2
:103D100005D00298C01C80088000C51900E000256D
:103D200002210598234622460191009029460698D3
:103D3000FFF7C2FE0698E8E7F8B506460F4600BF53
:103D400000BF3089B84200DCF8BD3089C01B80B2AA
:103D500000903D46344609E06089281A85B22189E1
:103D60000098081A2081246800BF00BF6089A8421B
:103D7000F2DB207B0007000F002811D16089A842E8
:103D80000ED0607B02210840002809D1A088001BCA
:103D9000401981B22046FFF736FA044600BF00BF43
:103DA0006581608920812068002802D02068FFF7A3
:103DB00092FE0020206000BFC6E770B5034615469E
:103DC00000BF00BF002B02D0F748814201D901207B
:103DD00070BD002901D10020FAE78AB21889801845
:103DE00080B2904201DA0120F2E71E7B8020304051
:103DF000002809D05868441A1846103084420AD264
:103E000000BF00BF0120E3E7002D02D05868441A2C
:103E100001E00120DCE700BF00BF5C60588980182A
:103E200058811889801818810020D1E770B50446A0
:103E30000D46002229462046FFF7BFFF70BD70B532
:103E400004460D46012229462046FFF7B6FF70BD05
:103E500010B5024600BF00BF002A02D0D2488142FE
:103E600001D9012010BD002901D10020FAE78BB251
:103E700000BF5089984201DA0120F3E700BF54687F
:103E80005068401850605089C01A50811089C01A7B
:103E9000108100BF00BF0020E4E770B505460C4666
:103EA0001646002C04DA61422846FFF7D1FF70BDA8
:103EB000324621462846FFF780FFF8E770B50446F2
:103EC0000D46002229462046FFF7E7FF70BD70B57A
:103ED00004460D46012229462046FFF7DEFF70BD4D
:103EE000F3B581B007463C46029D12E06089A842C6
:103EF0000ADC26466089281A85B2246800203060D2
:103F00003046FFF7E8FD04E029462046FFF7A0FF12
:103F10000025002D01D0002CE8D12046FEBD014631
:103F2000002002E0421C90B209680029FAD17047D3
:103F3000002806D000BF817B491C817300BF00BFF1
:103F400000BF704710B5024600BF002A01D000290B
:103F500000D110BD00BF104604E003890C891B1975
:103F6000038100680368002BF7D100BF00BF00BFCA
:103F700000BF03890C891B190381016000BFE8E7BA
:103F800030B505460C4621462846FFF7DBFF2046A4
:103F9000FFF7CEFF00BF00BF30BD70B5044601265D
:103FA0002568002D13D000BF00BF20896189401A09
:103FB0002881002020606089208100BF00BF284642
:103FC000FFF789FD0646002E01DD00BF00BF00BFE0
:103FD00000BF002E01DD002070BD2846FCE7F8B5CB
:103FE00005460C460026002700BF00BF00BF002D7D
:103FF00005D0002C03D028892189884202DA0F20BD
:10400000C043F8BD00BF00BF6889801B6189C91B20
:10401000884203D36089C01B009002E06889801B3E
:1040200000906268D1196A689019009A0AF062FAE1
:104030000098361800983F1800BF00BF00BF00BFAF
:104040006089B84201D8002724686889B0420AD143
:1040500000262D6800BF002D04D1002C02D00F20B7
:10406000C043CEE700BF002C0BD060892189884275
:1040700007D100BF2068002802D00520C043C0E758
:1040800000BF002D0BD068892989884207D100BF65
:104090002868002802D00520C043B2E700BF002CEA
:1040A000B2D100BF00BF0020ABE7FFB583B016461A
:1040B0001D4600200290019000BF0398002801D106
:1040C00007B0F0BD00BF00BF0498002800D1F7E79B
:1040D00000BF039C23E0002D06D06089A84203DCCA
:1040E0006089281A85B219E06089401B87B2B742FF
:1040F00000DD374660684119029A049883183A46F1
:1041000018460AF0F7F90198C01980B20190029898
:10411000C01980B20290F01B86B200252468002EE0
:1041200001D0002CD7D10198CAE730B503460C4620
:104130002146184603E045894D1BA9B200680028B6
:1041400002D045898D42F6DD002A00D0118030BDB5
:10415000FFB581B007460E461C4600BF002F01D1B7
:1041600005B0F0BD00BF00BF002E01D10020F7E771
:1041700000BF00BF0398A04201D20020F0E700BFBB
:104180006A4638460A99FFF7D0FF0546002D1AD037
:104190006889694609880919884207DB69460988E0
:1041A00068684018DCE70000FFFF000068460388ED
:1041B000224631462846FFF778FFA04201D0002072
:1041C000CEE73046CCE70020CAE7F8B504460D46F6
:1041D0001646324629462046FFF7A7FF07463846CF
:1041E000F8BDFEB504460E46174601970020009024
:1041F00000BF002C02D10F20C043FEBD00BF00BF96
:10420000002E02D10F20C043F7E700BF00BF208976
:10421000B84202DA0020C043EFE700BF002C04D010
:10422000002E02D02089B84202DA0F20C043E4E712
:10423000254618E000BF00BF0198029069890298E6
:10424000814201D268890290009AB1186868029A86
:104250000AF050F902990198401A019002990098C9
:10426000401800902D6801980028E3D100BF00BFDE
:1042700000BFC2E7FFB583B0154602AA06990398AE
:10428000FFF7A3FF0446002C2FD020896946098937
:104290004919884229DB2F460498019000BF00BFCE
:1042A000608969460989401AA84204DA608969462A
:1042B0000989401A00E0284686B26A461289616878
:1042C0008818324604990AF015F9B81B87B201988C
:1042D00080190190002F06DD3A4620680199FFF70A
:1042E00080FF07B0F0BD0020FBE70020C043F8E7E7
:1042F000F8B507460D46144621892A463846FFF789
:1043000050FC0646002E00D1F8BD21463046FFF78E
:1043100066FE009000BF00BF3046F5E770B504466A
:104320000E462068002801D1204670BD2246052196
:10433000C9013046FFF7DCFF0546002D01D12046BC
:10434000F3E72046FFF7C7FB2846EEE7F8B505463A
:104350000E466A4631462846FFF7E7FE0446002C23
:1043600009D0608969460988884204DD6946098860
:104370006068405CF8BD0020C043FBE770B50546AF
:104380000E4631462846FFF7E1FF0446002C01DBCC
:10439000E0B270BD0020FCE7F8B506460F461546B2
:1043A0006A4639463046FFF710FF0446002C08D015
:1043B000608969460988884203DD69460988606822
:1043C0004554F8BDFFB583B00746049E3D46398984
:1043D000049E06983018814202DA354807B0F0BDD5
:1043E00003E06889301A86B22D68002D02D06889F2
:1043F000B042F6DD002416E0301981B22846FFF7FE
:10440000BDFF02900598005D0190019902988842D5
:1044100007D0601C2649884200DA00E0244880B2B8
:10442000DCE7601C84B206988442E5DB0020D5E717
:10443000FFB583B0064615461F463089401B80B243
:1044400002903089E919884213DB3C460EE02B4686
:1044500021463046049AFFF7B5FF019001980028E5
:1044600002D1204607B0F0BD601C84B2029884429D
:10447000EDDD0F48F6E770B506460C46002C06D079
:104480002078002803D030890949884201D10848A2
:1044900070BD204609F0BCFF05460548854200D3A3
:1044A000F6E7AAB2002321463046FFF7C1FFEFE747
:1044B000FFFF000010B5FDF763FF044601490AF055
:1044C0001CF910BD1A060000704710B5044600BF65
:1044D00000BF21460120FFF728F810BD10B50446A3
:1044E00000BF00BF21460220FFF71FF810BD10B526
:1044F0000446002C09D06068002802D06068FFF7ED
:10450000EAFA21460320FFF710F810BD70B5044603
:1045100005E025682046FFF7EAFF2C4600BF002C87
:10452000F7D170BD10B5044600BF002C00D110BDFE
:1045300000BF207D00282AD0207D0A2827D0207D9A
:10454000012824D000BF00BF606F002806D000BF44
:1045500000BF606FFFF7BFFA00206067E06E0028C1
:1045600001D000BF00BF206F002801D000BF00BFF6
:104570000020C0432086E06EFFF7C8FF206FFFF7E2
:10458000C5FF0020E066206700216820015300BFBE
:10459000CDE7F0B589B000200690FA480068401CCD
:1045A000F8490860F8480078401CF749087000BFD7
:1045B0000025F6480468002C01D100BF00BFB7E118
:1045C00000BF00BF00BF00BF00BF00BF00BF00BFF3
:1045D000A07FED490978884202D12546E468A7E129
:1045E000E9480078A077002600200790207D022867
:1045F00007D14220005D062803DB701CC6B200BF55
:10460000BDE04220005D0C2803DB701CC6B200BF79
:10461000B5E09520005D00284ADD00BF00BF00BF67
:1046200000BF9620005D0C2802DB701CC6B2A6E01D
:104630009520005D401ED6490F5C9420005DB84275
:1046400005DA9420005D401CC1B2942001559420ED
:10465000005DB8422BDB012005906020005B002844
:1046600007D1204603F058FE00280FD00020059007
:104670000CE06020015B204602F0FEFF002805D11F
:10468000204603F061FB002800D105900598002822
:104690000CD00021942001559520005D072805D2FB
:1046A0009520005D401CC1B29520015500BF66E019
:1046B0003020205E002808DB3020205EB54988428B
:1046C00003DA208E401C00B220863021615E40203B
:1046D000025F914253DB00BF00BF204603F0BBFCEA
:1046E000002805D0206F002849D1E06E002846D070
:1046F000207D02281BD04222125D0C2A02D24222C7
:10470000125D00E00C2211463C22A25ED2103E2334
:10471000E35ED018A04B5B5C98409E4A904201DA61
:10472000024600E09B4A13B24022135300BF002010
:1047300020864820015B6020005B814202DA48202D
:10474000005B01E06020005B0890089841104A205F
:104750000153005B618E4904090C884204DA608EC3
:104760004004010C4A200153618E4820015300BFD0
:1047700000BF00216A200153204603F0C1FC207DC8
:1047800006280ED1608B10210840002809D07D49F1
:10479000206A0968081A282803D9701CC6B200BF0D
:1047A00000BF607A0821084000283ED0207D042800
:1047B00002D0207D072838D190210959774A8818DE
:1047C000FF21F53109F099FF6E4A216A1268511AEA
:1047D00088420CD200BF00BF00BF00BF00BF00BFB7
:1047E000701CC6B20798401CC0B207901DE0902113
:1047F0000A599721095D6A4B59435018FF21F53139
:1048000009F07BFF5F4A216A1268511A88420CD274
:10481000204603F04DFD06900698002805D197200C
:10482000005D401CC1B297200155207D032809D1AD
:104830005449206A0968081A282803D9701CC6B28E
:1048400000BF00BF207D092809D14E49206A0968B0
:10485000081AF02803D9701CC6B200BF00BF002E92
:104860003CD08C20005905902046FFF75BFE002DC0
:1048700004D000BF00BFE068E86004E000BF00BFF4
:104880004249E0680860079800280BD0208BE18A35
:10489000221D00920191029023462046626A216DFA
:1048A00003F0D7FC20690490207D03902746E4683C
:1048B0003846FFF70AFE00203A49087000BF059805
:1048C000002804D00C21C943059A0498904700BFE2
:1048D00034480078002800D06AE628E02546E468DD
:1048E000287F401C2877287F697F88421FDB0020B3
:1048F000287700BF00BF2B49087000BF88204059AF
:10490000002806D088214A592946286990470690F0
:1049100001E00020069000BF22480078002800D067
:1049200046E60698002802D1284603F00DFA00BF9B
:10493000002C00D044E600251B48046838E000BF86
:1049400000BF00260F49206A0968081AF02801D91B
:10495000701CC6B2002E29D02046FFF7E3FD002DC3
:1049600004D000BF00BFE068E86004E000BF00BF03
:104970000D49E06808602746E4683846FFF7A5FD62
:1049800016E00000880000209E0000209400002017
:10499000D5EC0000FF7F0000C8EC0000B84C0A0016
:1049A000F82401009C000020980000202546E468BF
:1049B000002CC4D109B0F0BD70B5054600BF00BFE2
:1049C000287D032804D004280BD007281BD111E030
:1049D000284602F0E0FF0446002C01D1052028758E
:1049E00013E0284602F0D7FF0446002C01D1052031
:1049F00028750AE0284602F0CEFF0446002C01D1BB
:104A00000920287501E0002070BD00BF002C03D1F3
:104A1000284603F099F90AE0601C002807D100BF7E
:104A2000688B08210843688300BF0020ECE720461C
:104A3000EAE770B505460C4600BF00BF00BF00BFE7
:104A400000BF2868A04203D12868C06828600CE035
:104A5000286806E0C168A14202D1E168C16002E0B5
:104A6000C0680028F6D100BF00BF0020E06000BF92
:104A70002046FFF757FD207D0A2810D0207D012811
:104A80000DD0A07EC007C00F002808D000BF608BEB
:104A900002210843608300BF204603F055F9207DC2
:104AA000012803D000BF00BF00BF00BF0020207559
:104AB000E08200BF00BF70BD024600BF00BF1046CD
:104AC00005E0836F8B4201D100238367C068002813
:104AD000F7D1704770B5054600BF00BF00BF00BFEB
:104AE000012407E0A100FA4A515808682946FFF757
:104AF000E3FF641C042CF5D370BD3EB504460D469F
:104B000000BF00BF002D4AD0207D042802D0207DA8
:104B1000072844D1606F002803D1208DED498842D9
:104B20003DD000BF00BF208BE18A221D0092019181
:104B3000029023462046626A216D03F08AFB2046DC
:104B4000FFF7F0FC00BF00BFE3480068A04205D1BA
:104B5000E1480068C068E04908600DE0DE49086887
:104B600006E0C168A14202D1E168C16002E0C0680C
:104B70000028F6D100BF00BF0020E06000BF012088
:104B8000D649087000BFD6480068A04202D102F0A2
:104B9000BCF902E02046FFF798FC00203EBD207DD6
:104BA000002804D0012825D002283BD12DE0E08A3E
:104BB00000281BD000BFCB480068A04205D1C948DF
:104BC0000068C068C74908600DE0C649086806E08B
:104BD000C168A14202D1E168C16002E0C06800285A
:104BE000F6D100BF00BF0020E06000BF2046FFF705
:104BF0006CFC1BE02046FFF76DFF2146BA48FFF72B
:104C000018FF2046FFF76AFC10E000BF2146B248BB
:104C1000FFF70FFF0120B149087000BF2046FFF7E2
:104C200054FC03E02046FFF7C7FEB7E700BF0020B3
:104C3000B4E710B5044600BF002C02D10F20C043DA
:104C400010BD00BF00BF00BF207D012805D000BF00
:104C5000608B10210843608300BF01212046FFF7CD
:104C60004CFFEDE710B5014600BF00BF0B8D486A51
:104C7000C218488E9D4CCB6AA04201DD204600E060
:104C8000488E1818101A04D4088D4885C86A101A5E
:104C900010BDCB6A486AC01A002802DD0020488592
:104CA00006E04C6ACB6A181B00BF00BF488500BFF6
:104CB0000020EDE7F8B504460F4600BF002C00D1F8
:104CC000F8BD00BF00BF00BF208DC01985B281486C
:104CD000854202DC208DA84204DD00BF00BF7D4874
:104CE000208500E025852046FFF7BCFF064680486A
:104CF000864208D300BF608B02210843608300BF57
:104D0000204603F021F800BF00BF00BFD8E7F8B588
:104D100007460D4614461E4600BF002D02D10F2047
:104D2000C043F8BD00BF002C07D021892846FFF7FB
:104D3000C1FF2046FEF7CFFE05E0002E03D1284636
:104D4000FFF777FFEDE70020EBE7F8B5044600BF7B
:104D5000002C02D10F20C043F8BD00BF606F407B24
:104D60000090666F0020606700BF00BF00BF80201A
:104D70000059002808D080210F59002332462146CF
:104D80002069B847054606E000233246214618460A
:104D9000FFF7BDFF054600BF002D22D1202100985E
:104DA000084000282AD0208D4A49884202D0208D10
:104DB000401C208500BF80200059002808D0802199
:104DC0000F5900231A4621462069B847054600E0DE
:104DD000002500BF28460D3000280FD10C20C0430D
:104DE000BAE728460D30002804D100BF00BF0C20D0
:104DF000C043B1E766670420C043ADE70020ABE7DE
:104E000070B53C480078401C3A49087000BF3248F1
:104E1000046840E0A07F3749097888423AD0354895
:104E20000078A077A07EC007C00F002810D000BF78
:104E300000BF00BF608B02210843608300BF204693
:104E400002F082FF00BF608B2B490840608300BFE7
:104E5000608B0821084000280BD000BF00BF00BFB6
:104E6000608B2549491F0840608300BF2046FFF73B
:104E7000A3FDE568606F00280AD00020174908707C
:104E80002046FFF762FF15480078002800D0BEE7F3
:104E90002C4600E0E468002CBCD170BD10B5FFF7D3
:104EA000AFFF16480078401CC0B214490870C00714
:104EB000C00F002801D0FFF76CFB10BD70B5044691
:104EC0000D46164600BF002C1AD10F20C04370BDFE
:104ED000DCEC0000680B0000940000209C00002027
:104EE000C80000208C00002090000020B4050000C5
:104EF000DA0200009E000020FCFF00009D00002060
:104F000000BF207D012802D10A20C04370BD002DC2
:104F100014D000BF608B10210843608300BF002EB7
:104F200004D001212046FFF7E8FDEFE7606F00287D
:104F300004D0606FFEF7CFFD00206067002E11D017
:104F4000207D032804D0042803D0072807D101E0DE
:104F500000BF00BFE9B22046FFF7CFFDD6E70A2029
:104F6000C043D3E70020D1E7F0B589B004460E4630
:104F700000BF002C01D109B0F0BD00BF00BF00BFD1
:104F8000207D0A2807D12146F848FFF752FD204628
:104F9000FFF79BFA62E0002006900590276D606A9B
:104FA00008908C20055920690790207D00281ED18B
:104FB000E08A002827D000BFED480068A04205D154
:104FC000EB480068C068EA4908600DE0E8490868F5
:104FD00006E0C168A14202D1E168C16002E0C06898
:104FE0000028F6D100BF00BF0020E0600BE006966D
:104FF000E08A059000BF2146DE48FFF71AFD012038
:10500000DD49087000BF206F002802D0206FFFF735
:105010007DFAE06E002802D0E06EFFF777FA06987E
:1050200000280DD000BF00BF208B221D059923460C
:1050300000920191029039462046089A03F009F93E
:10504000207D04902046FFF740FA00BF002D03D0DA
:105050000C21C9430798A84700BF00BF00BF8AE7DB
:1050600010B5044601212046FFF77EFF10BD10B5A4
:10507000002300BFC1480088401CC04C208020464F
:105080000088BF4CA04203D103208003BB4C20808A
:10509000002116E08800BB4C205802680DE0D08A41
:1050A000B64C2488A04207D1581C83B2B64883422C
:1050B00001DD002010BDDDE7D268002AEFD1481CD9
:1050C000C1B20429E6DBAD480088F3E7FEB505462A
:1050D0000C46174604200090002C00D1AB4C00BFBA
:1050E000002D02D10F20C043FEBD00BF00BF287DB0
:1050F000002802D00520C043F6E700BF002F06D1EC
:10510000FFF7B5FF0746002F28D1801EECE70020EF
:1051100001901FE0019880009A490858066814E041
:10512000F08AB84210D1002E0BD03068002808D089
:10513000002C06D02068002803D0306821688842FF
:1051400002D10720C043CFE7F668002EE8D10198CE
:10515000401C0190009901988842DBDB002C08D0AC
:105160002068002805D0002C01D1002000E0206834
:105170002860EF8200BF7E480068E8607C480560D8
:1051800003F0C5F900BF00BF00BF0020ACE7002955
:1051900004D03422525C521C027201E000220272DE
:1051A000704770B505460C46164600BF00BF204646
:1051B000FFF756FF0C20C04370BDF8B504461746F4
:1051C000002500BF002C02D10F26F64358E000BF97
:1051D00000BF207D002802D00E26F64350E000BF1D
:1051E000207D012803D125460826F64348E0022009
:1051F000FEF771F90546002D01D1461E40E02069F9
:105200002861E08AE88201202875607D6875607AEF
:10521000687200202872E07AE872A07AA87220688A
:105220002860E08A00281BD000BF51480068A042D7
:1052300005D14F480068C0684D4908600DE04C49F1
:10524000086806E0C168A14202D1E168C16002E0DD
:10525000C0680028F6D100BF00BF0020E06000BF9A
:105260002046FFF732F94A48A86100BF4948006864
:10527000E8604848056003F04AF900BF002600BF17
:10528000002F00D03E702846F8BD70B504460D468C
:10529000002229462046FFF790FF70BD70B50B46EF
:1052A000154600BF00BF002B00D170BD198D00292D
:1052B0000ED02822914202DD8E1AB6B200E00026FE
:1052C0003446A04201DA064600E02646304600BFDA
:1052D00000BFEAE7014600BF00BF2F4800682F4A21
:1052E000126880182C4A1060104600687047FFB59D
:1052F00083B004460E46002700BF002C03D10F20C8
:10530000C04307B0F0BD00BF00BF002E02D10F2088
:10531000C043F6E700BF00BF207D002802D009206F
:10532000C043EEE700BF00BF00BF002E01D1002048
:1053300000E03068606005982083207A002804D05F
:10534000207AFEF784FB074603E0201D05F056FF98
:105350000746002F01D1381FD3E7002C02D0206868
:10536000002826D1002F1BD0381D1AE098000020FD
:105370008C000020940000209C000020840000206D
:10538000FFFF0000DCEC0000FF3F000018ED000014
:10539000A351000090000020A00000208800002001
:1053A00000200146002901D1001FAAE708682060FB
:1053B00000BFE08A0190E08A002807D1FFF757FE7E
:1053C000E082E08A002801D1801E9AE72046FFF79C
:1053D00081FF0546002060622565681E6064A06547
:1053E000E065F74860852085606AE062F4496020E6
:1053F00001534320C0006086608E221D3946FFF7AE
:105400004DFF6086012148200153842106980851F0
:105410000221204602F02CFA02900298002831D195
:1054200002202075019800281BD000BFE5480068C5
:10543000A04205D1E3480068C068E24908600DE079
:10544000E049086806E0C168A14202D1E168C16094
:1054500002E0C0680028F6D100BF00BF0020E06075
:1054600000BF00BF00BFD8480068E060D6480460B5
:1054700003F04DF800BF0120D449087000BF20465A
:1054800002F062FC02983CE710B5CF48046808E0DF
:10549000608B80210840002802D0204602F054FC96
:1054A000E468002CF4D110BD00BF002800D1704783
:1054B00000BF417500BFFAE7F1B500987F2801DD14
:1054C0007F2000E000980646002E00D1F8BD701E37
:1054D000C6B200270025BC48046812E0607DB042D7
:1054E00008DB607DB0420BD1B949206A0968081A0F
:1054F000B84205D3B649206A09680F1A2546667D69
:10550000E468002CEAD1002D04D000BF00BF28467B
:10551000FFF7A6FD00BFD9E7F8B5064600BF00BFFC
:1055200000270025A84804680EE0207DB0420AD17B
:10553000A749206A0968081AB84204D3A449206A16
:1055400009680F1A2546E468002CEED1002D05D01D
:1055500000BF00BF00212846FFF706FDF8BD70B56B
:10556000002600259B4804680BE09949206A0968D9
:10557000081AB04204D39649206A09680E1A2546D3
:10558000E468002CF1D1002D04D000BF00BF2846F4
:10559000FFF766FD70BD70B58B48046812E0E568E2
:1055A000608B0821084000280AD000BF00BF00BF60
:1055B000608B89490840608300BF2046FFF7FCF9F3
:1055C0002C4600BF002CEAD170BD70B50546012005
:1055D000FDF781FF0446002C2ED1FFF7DCFF00BF52
:1055E00000BFFFF7BCFF0120FDF775FF0446002C4C
:1055F00021D100BF00BF0920FFF78EFF0120FDF77A
:105600006AFF0446002C15D100BF00BF0820FFF739
:1056100083FF0120FDF75FFF0446002C09D100BF86
:1056200000BF2846FFF748FF0120FDF754FF04465E
:1056300000BF00BF00BF00BF002C28D0982120462B
:1056400009F002F865755E496420015308466085DB
:105650002085FF20E0724320C000608606214020A4
:1056600001530620E087C01F2086012148200153F6
:1056700057480068206259480078A07750494A206E
:10568000015357498020015156499020015120462D
:1056900070BD10B54020FFF798FF10BD70B50546EE
:1056A0004020FFF792FF0446204670BD002800D03E
:1056B00001617047002803D000BF00BF8022115055
:1056C0007047002802D000BF00BFC16770470028A4
:1056D00003D000BF00BF8C2211507047002805D0B6
:1056E000027D012A02D10246916100BF704700BFCE
:1056F000002800D1704700BF00BF00BF88231950A9
:10570000427700BFF6E7F8B505460E46344600BFBF
:1057100000BF0CE020682968884207D1E76800BF15
:1057200000BF2046FFF79CFC3C4600E0E468002CEC
:10573000F0D1F8BD70B506460D46002E1DD030687C
:1057400000281AD0204801683046FFF7DCFF1D48CA
:1057500001683046FFF7D7FF002D0ED028680028DB
:105760000BD02148046806E020683168884201D1E6
:1057700028682060E468002CF6D170BD01468800DE
:105780001A4A1058704710B50446002C14D000294E
:1057900008D0002A01D020681060002B0AD0E08ACF
:1057A000188007E0002A01D060681060002B01D04B
:1057B000208B1880002010BD0520C043FBE70000AF
:1057C000680B00008C000020940000209C0000204A
:1057D0008800002098000020F7FF00009E000020B5
:1057E0000F4D000000DD6D00900000209CEC0000DB
:1057F00010B5044600BF00BFFC48007810210840E7
:10580000002818D0608B084000280BD100BF8C20E6
:105810000059002805D08C210A590E21C94320695E
:10582000904700BF2146F248FFF703F92046FEF7F4
:105830004CFE012010BD0020FCE7FEB506460C46DC
:1058400023E000BF00BF254624686868FEF767FBB9
:10585000019000BF00BF00BF00BF6620815B0198C0
:10586000081A81B2662081532889E24909884018C4
:10587000E04908802846FEF73AFE00BF00BF6620D8
:10588000805B002801D000BF00BF002C1ED0216922
:10589000081D08F01FFF0090FDF79DF907462269DB
:1058A000517B127B090211430846FDF78BF98007F3
:1058B000800F002801D0012000E00020218940183D
:1058C0003818CD490968401A0028BADD2046FEBDC7
:1058D000F0B585B004460020029000BF00BF00BFB5
:1058E00000BFC64800781021084000287CD0602006
:1058F000005BA16D40180390C149606D0968401AB2
:1059000018D4BF49606D0968884204D1BA49A06DB6
:105910000968401A0ED4B849A06D0968884223D19D
:10592000B8480168C87B897B000208436021095B95
:10593000884219D9B3480168C87B897B00020843B3
:10594000602108536220015B6020005B814203DA22
:105950006020015B62200153A94800686065A64889
:105960000068A06500BF00BFA349606C0968081A01
:1059700000284DDCA4480088002842D16020005B4C
:10598000A16D0918039881423BD13020205E002888
:1059900037DB9949606C0968884232D10120029056
:1059A0004320005D401CC1B24320005D814205DD03
:1059B0004320005D401CC1B2432001554320005DDF
:1059C000032817DD00BF4820005B618E401881B2BC
:1059D0004820005B814208DB4820005B618E401854
:1059E00081B24820015304E065E10021C943482009
:1059F000015300BF4320005D032802DB204602F074
:105A0000E4FB0298002802D10021432001551FE148
:105A1000606C401C78490968081A73D47649206D77
:105A20000968081A00286DDC608B042108400028F2
:105A30000CD000BF608B75490840608300BF4A20CE
:105A4000015B4820015300216A20015300214220BC
:105A500001553C20205EC010E18F401801B240206B
:105A6000015365490988606C081A86B200214320F9
:105A70000155614800686064207D04286FDB482080
:105A8000015B4A20005B81422CDA628B0123DB023E
:105A90001A40002A01D0012200E002221146628E43
:105AA0004A4392B2B24201DD324602E0628E4A437C
:105AB00092B2104600BF4822125B121893B24822DD
:105AC000125B934206DB4822125B121893B2482203
:105AD000135303E00023DB434822135300BF00BFEE
